0001CANETA ESF AZUL     UNID A1B1 00085010000005000000080000001200025
0002CANETA ESF PRETA    UNID A1B2 00085010000005000000080000001200025
0003CANETA ESF VERMELHA UNID A1B3 00085010000005000000080000001200025
0004CANETA ESF VERDE    UNID A1B4 00085010000005000000080000001200025
0005CANETA ESF ROXA     UNID A1B5 00085010000005000000080000001200025
0006CANETA ESF ROSA     UNID A1B6 00085010000005000000080000001200025
0007CADERNO UNIV 90 PG  PACT C7M1 00052005000010000000290000005800095
0008CADERNO UNIV 100 PG PACT C7M2 00090005000010000000390000006800095
0009CADERNO UNIV 500 PG PACT C7M3 00100005000010000000490000008800095
0010GRAMPEADOR PEQN     UNID E3O5 00002000500001000000100000002500050
0010GRAMPEADOR PEQN     UNID E3O5 00002000500001000000100000002500050
0011GRAMPEADOR MEDIO    UNID E3O6 00015000500001000000250000004500080
0012GRAMPEADOR GRANDE   UNID E3O7 00018000500001000000400000005800150
0013FURADOR PEQN        UNID F4P2 00000000500001000000100000000800010
0014FURADOR MEDIO       UNID F4P3 00005000500001000000250000001800020
0015FURADOR GRANDE      UNID F4P4 00015000500001000000350000002800030
0016BLOCO DE RASCUNHO F UNID G9Q1 00100005000020000000095000001500015
0017BLOCO DE RASCUNHO M UNID G9Q2 00000005000020000000095000001500015
0018LAPIS DE COR PEQN   CXA  F1R5 00023008000010000000120000002000050
0019LAPIS DE COR MEDIO  CXA  F1R6 00080008000010000000250000004000080
0020LAPIS DE COR GRANDE CXA  F1R7 00055008000010000000350000006000150
0020LAPIS DE COR GRANDE CXA  F1R7 00055008000010000000350000006000150
0021PAPEL SULFITE 100F  PACT R1H2 00005010000020000000200000003000010
0022PAPEL SULFITE 250F  PACT R1H3 00015010000020000000300000004000010
0023PAPEL SULFITE 500F  PACT R1H4 00010010000020000000400000005000010
0024CD VIRGEM           UNID X9L1 00003010000005000000010000000400005
0025DVD VIRGEM          UNID X9L2 00005010000005000000020000000800015
0026CARTOLINA           UNID K2V3 01000050000005000000020000000800015
0027FOLHA DE ALMACO     PACT T8W7 00013005000001000000080000001500030
0028BORRACHA PEQN       UNID G2D2 00100010000005000000030000000800010
0029BORRACHA MEDIA      UNID G2D3 00001010000005000000080000001800020
0030BORRACHA GRANDE     UNID G2D4 00150010000005000000150000002800020
0030BORRACHA GRANDE     UNID G2D4 00150010000005000000150000002800020
0031APONTADOR PEQN      UNID D1G9 00040050000002000000050000000950005
0032APONTADOR MEDIO     UNID D2G8 00055050000002000000090000001500015
0033APONTADOR GRANDE    UNID D3G7 00010050000002000000150000002000025
0034REGUA PEQN          UNID I6Y5 00100100000000500000060000000900010
0035REGUA MEDIA         UNID I6Y6 00000100000000500000090000001200020
0036REGUA GRANDE        UNID I6Y7 00005100000000500000120000001500030
0037TRANSFERIDOR PEQN   UNID J5H6 00015002000003000000100000001500030
0038TRANSFERIDOR MEDIO  UNID J5H7 00115002000003000000150000002500050
0039TRANSFERIDOR GRANDE UNID J5H8 00005002000003000000200000003500070
0040CADERNO CALIGRAFIA  PACT Z9U5 01050050000005000000500000008000100
0040CADERNO CALIGRAFIA  PACT Z9U5 01050050000005000000500000008000100
0041ESTOJO BRANCO       UNID F5G6 00050002000000500000100000002000050
0042ESTOJO PRETO        UNID F5G7 00025002000000500000100000002000050
0043ESTOJO ROXO         UNID F5G8 00000002000000500000100000002000050
0044ESTOJO AZUL         UNID F5G9 00001002000000500000100000002000050
0045ESTOJO AMARELO      UNID F5G0 00100002000000500000100000002000050
0046ESTOJO VERDE        UNID F5G1 00120002000000500000100000002000050
0047ESTOJO ROSA         UNID F5G2 00000002000000500000100000002000050
0048ESTOJO CINZA        UNID F5G3 00145002000000500000100000002000050
0049ESTOJO DOURADO      UNID F5G4 00045002000000500000100000002000050
0050ESTOJO PRATEADO     UNID F5G5 00140002000000500000100000002000050
0050ESTOJO PRATEADO     UNID F5G5 00140002000000500000100000002000050
0055COLA BASTAO         UNID A4C4 00014005000001000000200000004000100
0051FICHARIO BARBIE     UNID K2A1 00030001000001000001000000020000200
0052FICHARIO BATMAN     UNID K2A2 00021001000001000001000000020000200
0053CORRETIVO           UNID P8L6 00000001000005000000100000003500050
0054COLA LIQUIDA        UNID A4B4 00005005000001000000150000003500050
0055COLA BASTAO         UNID A4C4 00014005000001000000200000004000100
0056PASTA C/ ELASTICO   UNID T7T7 00080010000005000000050000001000050
0057TESOURA SEM PONTA   UNID R0R5 00005005000001500000100000002000050
0058TESOURA COM PONTA   UNID R0R6 00015005000001500000250000004500100
0059GIZ DE CERA         CXA  H8J5 00021010000001000000100000003000050
0060PAPEL CREPON        PACT K2A2 00100008000005000000050000001000010
0060PAPEL CREPON        PACT K2A2 00100008000005000000050000001000010
0061PAPEL DE SEDA       PACT K2A3 00023008000005000000045000000950010
0062PAPEL CONTACT       PACT K2A4 00080008000005000000200000002000010
0063PAPEL VEGETAL       PACT K2A5 00120008000005000000090000001200020
0064ELASTICO            CXA  L5B2 00003001000002000000130000002000010
0065CLIPS PARA PAPEL    CXA  L5B3 00000001000002000000150000003000050
0066GRAMPO PARA PAPEL   CXA  L5B4 00008001000002000000030000001000085
0067CALCULADORA         UNID G6D8 00150005000005000001500000018000200
0068TINTA GUACHE        CXA  J5L3 00000006000001000000090000001500050
0069TINTA OLEO          UNID J5L4 00002003500005000000150000002300080
0070COLA GLITER         UNID O8P9 00012002000001000000100000003500050
0070COLA GLITER         UNID O8P9 00012002000001000000100000003500050
0071SACO PLASTICO       PACT M3N2 00055005000003500000120000001200000
0072LAPIS B2            UNID J5W2 00013008500001500000055000001500010
0073LAPISEIRA 05        UNID J5W3 00009009000005000000075000002100020
0074LAPISEIRA 07        UNID J5W3 00012009000005000000085000002200020
0075LAPISEIRA 09        UNID J5W3 00022009000005000000095000002300020
0076PINCEL PQNO         UNID G5G4 00012005000002000000120000002000030
0077PINCEL MEDIO        UNID G5G3 00006005000002000000160000002200030
0078PINCEL GRANDE       UNID G5G2 00042005000002000000200000003000030
0079CANETA HIDROGRAFICA CXA  Z3X2 00060001000001000000100000001200010
0080GLITER              UNID V4H2 00010005000003000000060000001500020
0080GLITER              UNID V4H2 00010005000003000000060000001500020
0081PURPURINA           UNID V4H3 00001005000003000000060000001500020
0082MOCHILA PQNA        UNID D1G2 00010001000001000001000000015000200
0083MOCHILA MEDIA       UNID D1G3 00012001000001000001500000020000200
0084MOCHILA GRANDE      UNID D1G4 00009001000001000002000000025000200
0085LANCHEIRA PQNA      UNID D1G5 00021001000001000001000000015000200
0086LANCHEIRA MEDIA     UNID D1G6 00015001000001000001500000020000200
0087LANCHEIRA GRANDE    UNID D1G7 00035001000001000002000000025000200
0088AVENTAL ESCOLAR     UNID O5Y3 00002000800000500000300000005000050
0089GRAFITE 05          UNID Q1T1 00010002000000500000100000001500010
0090GRAFITE 07          UNID Q1T2 00000002000000500000110000001600020
0090GRAFITE 07          UNID Q1T2 00000002000000500000110000001600020
0091GRAFITE 09          UNID Q1T3 00015002000000500000120000001700030
0092FITA ADESIVA PQNA   UNID J5H4 00050001000001000000140000002000050
0093FITA ADESIVA MEDIA  UNID J5H3 00010001000001000000160000002500050
0094FITA ADESIVA GRANDE UNID J5H2 00015001000001000000180000003000050
0095PAPEL CARBONO       PCTE U5A2 00010005000000800000050000000850010
0096PAPEL ESPELHO       PCTE U5A3 00025005000000800000080000001200010
0097PAPEL CARTAO        PCTE U5A4 00005005000000800000100000001000010
0098GIZ BRANCO          CXA  E3E1 00012002500001500000080000000800015
0099GIZ COLIRIDO        CXA  E3E2 00016002500001500000090000001000015
0100PINCEL ATOMICO      UNID E3E3 00003002500001500000150000002000030
0100PINCEL ATOMICO      UNID E3E3 00003002500001500000150000002000030
1090GRAFITE 07          UNID Q1T2 00000002001000500000110000001600020
1091GRAFITE 09          UNID Q1T3 00015002001000500000120000001700030
1092FITA ADESIVA PQNA   UNID J5H4 00050001001001000000140000002000050
1093FITA ADESIVA MEDIA  UNID J5H3 00010001001001000000160000002500050
1094FITA ADESIVA GRANDE UNID J5H2 00015001001001000000180000003000050
1095PAPEL CARBONO       PCTE U5A2 00010005000000800000050000000850000
1096PAPEL ESPELHO       PCTE U5A3 00025005000000800000080000001200000
1097PAPEL CARTAO        PCTE U5A4 00005005000000800000100000001000000
1098GIZ BRANCO          CXA  E3E1 00012002500001500000080000000800000
1099GIZ COLIRIDO        CXA  E3E2 00016002500001500000090000001000000
1100PINCEL ATOMICO      UNID E3E3 00003002500001500000150000002000030
0100PINCEL ATOMICO      UNID E3E3 00003002500001500000150000002000030
0990GRAFITE 07          UNID Q1T2 00000002000000500000110000001600020
0991GRAFITE 09          UNID Q1T3 00015002000000500000120000001700030
0992FITA ADESIVA PQNA   UNID J5H4 00050001000001000000140000002000050
0993FITA ADESIVA MEDIA  UNID J5H3 00010001000001000000160000002500050
0994FITA ADESIVA GRANDE UNID J5H2 00015001000001000000180000003000050
0995PAPEL CARBONO       PCTE U5A2 00010005000000800000050000000850010
0996PAPEL ESPELHO       PCTE U5A3 00025005000000800000080000001200010
0997PAPEL CARTAO        PCTE U5A4 00005005000000800000100000001000010
0998GIZ BRANCO          CXA  E3E1 00012002500001500000080000000800015
0999GIZ COLIRIDO        CXA  E3E2 00016002500001500000090000001000015
0900PINCEL ATOMICO      UNID E3E3 00003002500001500000150000002000030
0900PINCEL ATOMICO      UNID E3E3 00003002500001500000150000002000030
